{
	"brownie/vuln_test/contracts/EtherStore.sol": {
		"EtherStore": {
			"abi": [
				{
					"inputs": [
						{
							"internalType": "address",
							"name": "",
							"type": "address"
						}
					],
					"name": "balances",
					"outputs": [
						{
							"internalType": "uint256",
							"name": "",
							"type": "uint256"
						}
					],
					"stateMutability": "view",
					"type": "function"
				},
				{
					"inputs": [],
					"name": "depositFunds",
					"outputs": [],
					"stateMutability": "payable",
					"type": "function"
				},
				{
					"inputs": [
						{
							"internalType": "address",
							"name": "",
							"type": "address"
						}
					],
					"name": "lastWithdrawTime",
					"outputs": [
						{
							"internalType": "uint256",
							"name": "",
							"type": "uint256"
						}
					],
					"stateMutability": "view",
					"type": "function"
				},
				{
					"inputs": [
						{
							"internalType": "uint256",
							"name": "_weiToWithdraw",
							"type": "uint256"
						}
					],
					"name": "withdrawFunds",
					"outputs": [
						{
							"internalType": "bytes",
							"name": "",
							"type": "bytes"
						}
					],
					"stateMutability": "nonpayable",
					"type": "function"
				},
				{
					"inputs": [],
					"name": "withdrawalLimit",
					"outputs": [
						{
							"internalType": "uint256",
							"name": "",
							"type": "uint256"
						}
					],
					"stateMutability": "view",
					"type": "function"
				}
			],
			"devdoc": {
				"kind": "dev",
				"methods": {},
				"version": 1
			},
			"evm": {
				"assembly": "    /* \"brownie/vuln_test/contracts/EtherStore.sol\":58:930  contract EtherStore {... */\n  mstore(0x40, 0x80)\n    /* \"brownie/vuln_test/contracts/EtherStore.sol\":118:125  1 ether */\n  0x0de0b6b3a7640000\n    /* \"brownie/vuln_test/contracts/EtherStore.sol\":85:125  uint256 public withdrawalLimit = 1 ether */\n  0x00\n  sstore\n    /* \"brownie/vuln_test/contracts/EtherStore.sol\":58:930  contract EtherStore {... */\n  callvalue\n  dup1\n  iszero\n  tag_1\n  jumpi\n  0x00\n  dup1\n  revert\ntag_1:\n  pop\n  dataSize(sub_0)\n  dup1\n  dataOffset(sub_0)\n  0x00\n  codecopy\n  0x00\n  return\nstop\n\nsub_0: assembly {\n        /* \"brownie/vuln_test/contracts/EtherStore.sol\":58:930  contract EtherStore {... */\n      mstore(0x40, 0x80)\n      jumpi(tag_1, lt(calldatasize, 0x04))\n      shr(0xe0, calldataload(0x00))\n      dup1\n      0x1031ec31\n      eq\n      tag_2\n      jumpi\n      dup1\n      0x155dd5ee\n      eq\n      tag_3\n      jumpi\n      dup1\n      0x27e235e3\n      eq\n      tag_4\n      jumpi\n      dup1\n      0x7ddfe78d\n      eq\n      tag_5\n      jumpi\n      dup1\n      0xe2c41dbc\n      eq\n      tag_6\n      jumpi\n    tag_1:\n      0x00\n      dup1\n      revert\n        /* \"brownie/vuln_test/contracts/EtherStore.sol\":131:182  mapping(address => uint256) public lastWithdrawTime */\n    tag_2:\n      callvalue\n      dup1\n      iszero\n      tag_7\n      jumpi\n      0x00\n      dup1\n      revert\n    tag_7:\n      pop\n      tag_8\n      0x04\n      dup1\n      calldatasize\n      sub\n      dup2\n      add\n      swap1\n      tag_9\n      swap2\n      swap1\n      tag_10\n      jump\t// in\n    tag_9:\n      tag_11\n      jump\t// in\n    tag_8:\n      mload(0x40)\n      tag_12\n      swap2\n      swap1\n      tag_13\n      jump\t// in\n    tag_12:\n      mload(0x40)\n      dup1\n      swap2\n      sub\n      swap1\n      return\n        /* \"brownie/vuln_test/contracts/EtherStore.sol\":339:927  function withdrawFunds (uint256 _weiToWithdraw) public returns(bytes memory) {... */\n    tag_3:\n      callvalue\n      dup1\n      iszero\n      tag_14\n      jumpi\n      0x00\n      dup1\n      revert\n    tag_14:\n      pop\n      tag_15\n      0x04\n      dup1\n      calldatasize\n      sub\n      dup2\n      add\n      swap1\n      tag_16\n      swap2\n      swap1\n      tag_17\n      jump\t// in\n    tag_16:\n      tag_18\n      jump\t// in\n    tag_15:\n      mload(0x40)\n      tag_19\n      swap2\n      swap1\n      tag_20\n      jump\t// in\n    tag_19:\n      mload(0x40)\n      dup1\n      swap2\n      sub\n      swap1\n      return\n        /* \"brownie/vuln_test/contracts/EtherStore.sol\":188:231  mapping(address => uint256) public balances */\n    tag_4:\n      callvalue\n      dup1\n      iszero\n      tag_21\n      jumpi\n      0x00\n      dup1\n      revert\n    tag_21:\n      pop\n      tag_22\n      0x04\n      dup1\n      calldatasize\n      sub\n      dup2\n      add\n      swap1\n      tag_23\n      swap2\n      swap1\n      tag_10\n      jump\t// in\n    tag_23:\n      tag_24\n      jump\t// in\n    tag_22:\n      mload(0x40)\n      tag_25\n      swap2\n      swap1\n      tag_13\n      jump\t// in\n    tag_25:\n      mload(0x40)\n      dup1\n      swap2\n      sub\n      swap1\n      return\n        /* \"brownie/vuln_test/contracts/EtherStore.sol\":85:125  uint256 public withdrawalLimit = 1 ether */\n    tag_5:\n      callvalue\n      dup1\n      iszero\n      tag_26\n      jumpi\n      0x00\n      dup1\n      revert\n    tag_26:\n      pop\n      tag_27\n      tag_28\n      jump\t// in\n    tag_27:\n      mload(0x40)\n      tag_29\n      swap2\n      swap1\n      tag_13\n      jump\t// in\n    tag_29:\n      mload(0x40)\n      dup1\n      swap2\n      sub\n      swap1\n      return\n        /* \"brownie/vuln_test/contracts/EtherStore.sol\":238:329  function depositFunds() external payable {... */\n    tag_6:\n      tag_30\n      tag_31\n      jump\t// in\n    tag_30:\n      stop\n        /* \"brownie/vuln_test/contracts/EtherStore.sol\":131:182  mapping(address => uint256) public lastWithdrawTime */\n    tag_11:\n      mstore(0x20, 0x01)\n      dup1\n      0x00\n      mstore\n      keccak256(0x00, 0x40)\n      0x00\n      swap2\n      pop\n      swap1\n      pop\n      sload\n      dup2\n      jump\t// out\n        /* \"brownie/vuln_test/contracts/EtherStore.sol\":339:927  function withdrawFunds (uint256 _weiToWithdraw) public returns(bytes memory) {... */\n    tag_18:\n        /* \"brownie/vuln_test/contracts/EtherStore.sol\":402:414  bytes memory */\n      0x60\n        /* \"brownie/vuln_test/contracts/EtherStore.sol\":458:472  _weiToWithdraw */\n      dup2\n        /* \"brownie/vuln_test/contracts/EtherStore.sol\":434:442  balances */\n      0x02\n        /* \"brownie/vuln_test/contracts/EtherStore.sol\":434:454  balances[msg.sender] */\n      0x00\n        /* \"brownie/vuln_test/contracts/EtherStore.sol\":443:453  msg.sender */\n      caller\n        /* \"brownie/vuln_test/contracts/EtherStore.sol\":434:454  balances[msg.sender] */\n      0xffffffffffffffffffffffffffffffffffffffff\n      and\n      0xffffffffffffffffffffffffffffffffffffffff\n      and\n      dup2\n      mstore\n      0x20\n      add\n      swap1\n      dup2\n      mstore\n      0x20\n      add\n      0x00\n      keccak256\n      sload\n        /* \"brownie/vuln_test/contracts/EtherStore.sol\":434:472  balances[msg.sender] >= _weiToWithdraw */\n      lt\n      iszero\n        /* \"brownie/vuln_test/contracts/EtherStore.sol\":426:490  require(balances[msg.sender] >= _weiToWithdraw,\"No ENough ETH!\") */\n      tag_33\n      jumpi\n      mload(0x40)\n      0x08c379a000000000000000000000000000000000000000000000000000000000\n      dup2\n      mstore\n      0x04\n      add\n      tag_34\n      swap1\n      tag_35\n      jump\t// in\n    tag_34:\n      mload(0x40)\n      dup1\n      swap2\n      sub\n      swap1\n      revert\n    tag_33:\n        /* \"brownie/vuln_test/contracts/EtherStore.sol\":558:573  withdrawalLimit */\n      sload(0x00)\n        /* \"brownie/vuln_test/contracts/EtherStore.sol\":540:554  _weiToWithdraw */\n      dup3\n        /* \"brownie/vuln_test/contracts/EtherStore.sol\":540:573  _weiToWithdraw <= withdrawalLimit */\n      gt\n      iszero\n        /* \"brownie/vuln_test/contracts/EtherStore.sol\":532:594  require(_weiToWithdraw <= withdrawalLimit,\"EXCEED ETH LIMIT!\") */\n      tag_36\n      jumpi\n      mload(0x40)\n      0x08c379a000000000000000000000000000000000000000000000000000000000\n      dup2\n      mstore\n      0x04\n      add\n      tag_37\n      swap1\n      tag_38\n      jump\t// in\n    tag_37:\n      mload(0x40)\n      dup1\n      swap2\n      sub\n      swap1\n      revert\n    tag_36:\n        /* \"brownie/vuln_test/contracts/EtherStore.sol\":729:738  bool test */\n      0x00\n        /* \"brownie/vuln_test/contracts/EtherStore.sol\":739:753  bytes memory x */\n      dup1\n        /* \"brownie/vuln_test/contracts/EtherStore.sol\":757:767  msg.sender */\n      caller\n        /* \"brownie/vuln_test/contracts/EtherStore.sol\":757:772  msg.sender.call */\n      0xffffffffffffffffffffffffffffffffffffffff\n      and\n        /* \"brownie/vuln_test/contracts/EtherStore.sol\":779:793  _weiToWithdraw */\n      dup5\n        /* \"brownie/vuln_test/contracts/EtherStore.sol\":757:798  msg.sender.call{value:_weiToWithdraw}(\"\") */\n      mload(0x40)\n      tag_39\n      swap1\n      tag_40\n      jump\t// in\n    tag_39:\n      0x00\n      mload(0x40)\n      dup1\n      dup4\n      sub\n      dup2\n      dup6\n      dup8\n      gas\n      call\n      swap3\n      pop\n      pop\n      pop\n      returndatasize\n      dup1\n      0x00\n      dup2\n      eq\n      tag_43\n      jumpi\n      mload(0x40)\n      swap2\n      pop\n      and(add(returndatasize, 0x3f), not(0x1f))\n      dup3\n      add\n      0x40\n      mstore\n      returndatasize\n      dup3\n      mstore\n      returndatasize\n      0x00\n      0x20\n      dup5\n      add\n      returndatacopy\n      jump(tag_42)\n    tag_43:\n      0x60\n      swap2\n      pop\n    tag_42:\n      pop\n        /* \"brownie/vuln_test/contracts/EtherStore.sol\":728:798  (bool test,bytes memory x) = msg.sender.call{value:_weiToWithdraw}(\"\") */\n      swap2\n      pop\n      swap2\n      pop\n        /* \"brownie/vuln_test/contracts/EtherStore.sol\":832:846  _weiToWithdraw */\n      dup4\n        /* \"brownie/vuln_test/contracts/EtherStore.sol\":808:816  balances */\n      0x02\n        /* \"brownie/vuln_test/contracts/EtherStore.sol\":808:828  balances[msg.sender] */\n      0x00\n        /* \"brownie/vuln_test/contracts/EtherStore.sol\":817:827  msg.sender */\n      caller\n        /* \"brownie/vuln_test/contracts/EtherStore.sol\":808:828  balances[msg.sender] */\n      0xffffffffffffffffffffffffffffffffffffffff\n      and\n      0xffffffffffffffffffffffffffffffffffffffff\n      and\n      dup2\n      mstore\n      0x20\n      add\n      swap1\n      dup2\n      mstore\n      0x20\n      add\n      0x00\n      keccak256\n      0x00\n        /* \"brownie/vuln_test/contracts/EtherStore.sol\":808:846  balances[msg.sender] -= _weiToWithdraw */\n      dup3\n      dup3\n      sload\n      tag_44\n      swap2\n      swap1\n      tag_45\n      jump\t// in\n    tag_44:\n      swap3\n      pop\n      pop\n      dup2\n      swap1\n      sstore\n      pop\n        /* \"brownie/vuln_test/contracts/EtherStore.sol\":887:902  block.timestamp */\n      timestamp\n        /* \"brownie/vuln_test/contracts/EtherStore.sol\":856:872  lastWithdrawTime */\n      0x01\n        /* \"brownie/vuln_test/contracts/EtherStore.sol\":856:884  lastWithdrawTime[msg.sender] */\n      0x00\n        /* \"brownie/vuln_test/contracts/EtherStore.sol\":873:883  msg.sender */\n      caller\n        /* \"brownie/vuln_test/contracts/EtherStore.sol\":856:884  lastWithdrawTime[msg.sender] */\n      0xffffffffffffffffffffffffffffffffffffffff\n      and\n      0xffffffffffffffffffffffffffffffffffffffff\n      and\n      dup2\n      mstore\n      0x20\n      add\n      swap1\n      dup2\n      mstore\n      0x20\n      add\n      0x00\n      keccak256\n        /* \"brownie/vuln_test/contracts/EtherStore.sol\":856:902  lastWithdrawTime[msg.sender] = block.timestamp */\n      dup2\n      swap1\n      sstore\n      pop\n        /* \"brownie/vuln_test/contracts/EtherStore.sol\":919:920  x */\n      dup1\n        /* \"brownie/vuln_test/contracts/EtherStore.sol\":912:920  return x */\n      swap3\n      pop\n      pop\n      pop\n        /* \"brownie/vuln_test/contracts/EtherStore.sol\":339:927  function withdrawFunds (uint256 _weiToWithdraw) public returns(bytes memory) {... */\n      swap2\n      swap1\n      pop\n      jump\t// out\n        /* \"brownie/vuln_test/contracts/EtherStore.sol\":188:231  mapping(address => uint256) public balances */\n    tag_24:\n      mstore(0x20, 0x02)\n      dup1\n      0x00\n      mstore\n      keccak256(0x00, 0x40)\n      0x00\n      swap2\n      pop\n      swap1\n      pop\n      sload\n      dup2\n      jump\t// out\n        /* \"brownie/vuln_test/contracts/EtherStore.sol\":85:125  uint256 public withdrawalLimit = 1 ether */\n    tag_28:\n      sload(0x00)\n      dup2\n      jump\t// out\n        /* \"brownie/vuln_test/contracts/EtherStore.sol\":238:329  function depositFunds() external payable {... */\n    tag_31:\n        /* \"brownie/vuln_test/contracts/EtherStore.sol\":313:322  msg.value */\n      callvalue\n        /* \"brownie/vuln_test/contracts/EtherStore.sol\":289:297  balances */\n      0x02\n        /* \"brownie/vuln_test/contracts/EtherStore.sol\":289:309  balances[msg.sender] */\n      0x00\n        /* \"brownie/vuln_test/contracts/EtherStore.sol\":298:308  msg.sender */\n      caller\n        /* \"brownie/vuln_test/contracts/EtherStore.sol\":289:309  balances[msg.sender] */\n      0xffffffffffffffffffffffffffffffffffffffff\n      and\n      0xffffffffffffffffffffffffffffffffffffffff\n      and\n      dup2\n      mstore\n      0x20\n      add\n      swap1\n      dup2\n      mstore\n      0x20\n      add\n      0x00\n      keccak256\n      0x00\n        /* \"brownie/vuln_test/contracts/EtherStore.sol\":289:322  balances[msg.sender] += msg.value */\n      dup3\n      dup3\n      sload\n      tag_47\n      swap2\n      swap1\n      tag_48\n      jump\t// in\n    tag_47:\n      swap3\n      pop\n      pop\n      dup2\n      swap1\n      sstore\n      pop\n        /* \"brownie/vuln_test/contracts/EtherStore.sol\":238:329  function depositFunds() external payable {... */\n      jump\t// out\n        /* \"#utility.yul\":88:205   */\n    tag_50:\n        /* \"#utility.yul\":197:198   */\n      0x00\n        /* \"#utility.yul\":194:195   */\n      dup1\n        /* \"#utility.yul\":187:199   */\n      revert\n        /* \"#utility.yul\":334:460   */\n    tag_52:\n        /* \"#utility.yul\":371:378   */\n      0x00\n        /* \"#utility.yul\":411:453   */\n      0xffffffffffffffffffffffffffffffffffffffff\n        /* \"#utility.yul\":404:409   */\n      dup3\n        /* \"#utility.yul\":400:454   */\n      and\n        /* \"#utility.yul\":389:454   */\n      swap1\n      pop\n        /* \"#utility.yul\":334:460   */\n      swap2\n      swap1\n      pop\n      jump\t// out\n        /* \"#utility.yul\":466:562   */\n    tag_53:\n        /* \"#utility.yul\":503:510   */\n      0x00\n        /* \"#utility.yul\":532:556   */\n      tag_80\n        /* \"#utility.yul\":550:555   */\n      dup3\n        /* \"#utility.yul\":532:556   */\n      tag_52\n      jump\t// in\n    tag_80:\n        /* \"#utility.yul\":521:556   */\n      swap1\n      pop\n        /* \"#utility.yul\":466:562   */\n      swap2\n      swap1\n      pop\n      jump\t// out\n        /* \"#utility.yul\":568:690   */\n    tag_54:\n        /* \"#utility.yul\":641:665   */\n      tag_82\n        /* \"#utility.yul\":659:664   */\n      dup2\n        /* \"#utility.yul\":641:665   */\n      tag_53\n      jump\t// in\n    tag_82:\n        /* \"#utility.yul\":634:639   */\n      dup2\n        /* \"#utility.yul\":631:666   */\n      eq\n        /* \"#utility.yul\":621:684   */\n      tag_83\n      jumpi\n        /* \"#utility.yul\":680:681   */\n      0x00\n        /* \"#utility.yul\":677:678   */\n      dup1\n        /* \"#utility.yul\":670:682   */\n      revert\n        /* \"#utility.yul\":621:684   */\n    tag_83:\n        /* \"#utility.yul\":568:690   */\n      pop\n      jump\t// out\n        /* \"#utility.yul\":696:835   */\n    tag_55:\n        /* \"#utility.yul\":742:747   */\n      0x00\n        /* \"#utility.yul\":780:786   */\n      dup2\n        /* \"#utility.yul\":767:787   */\n      calldataload\n        /* \"#utility.yul\":758:787   */\n      swap1\n      pop\n        /* \"#utility.yul\":796:829   */\n      tag_85\n        /* \"#utility.yul\":823:828   */\n      dup2\n        /* \"#utility.yul\":796:829   */\n      tag_54\n      jump\t// in\n    tag_85:\n        /* \"#utility.yul\":696:835   */\n      swap3\n      swap2\n      pop\n      pop\n      jump\t// out\n        /* \"#utility.yul\":841:1170   */\n    tag_10:\n        /* \"#utility.yul\":900:906   */\n      0x00\n        /* \"#utility.yul\":949:951   */\n      0x20\n        /* \"#utility.yul\":937:946   */\n      dup3\n        /* \"#utility.yul\":928:935   */\n      dup5\n        /* \"#utility.yul\":924:947   */\n      sub\n        /* \"#utility.yul\":920:952   */\n      slt\n        /* \"#utility.yul\":917:1036   */\n      iszero\n      tag_87\n      jumpi\n        /* \"#utility.yul\":955:1034   */\n      tag_88\n      tag_50\n      jump\t// in\n    tag_88:\n        /* \"#utility.yul\":917:1036   */\n    tag_87:\n        /* \"#utility.yul\":1075:1076   */\n      0x00\n        /* \"#utility.yul\":1100:1153   */\n      tag_89\n        /* \"#utility.yul\":1145:1152   */\n      dup5\n        /* \"#utility.yul\":1136:1142   */\n      dup3\n        /* \"#utility.yul\":1125:1134   */\n      dup6\n        /* \"#utility.yul\":1121:1143   */\n      add\n        /* \"#utility.yul\":1100:1153   */\n      tag_55\n      jump\t// in\n    tag_89:\n        /* \"#utility.yul\":1090:1153   */\n      swap2\n      pop\n        /* \"#utility.yul\":1046:1163   */\n      pop\n        /* \"#utility.yul\":841:1170   */\n      swap3\n      swap2\n      pop\n      pop\n      jump\t// out\n        /* \"#utility.yul\":1176:1253   */\n    tag_56:\n        /* \"#utility.yul\":1213:1220   */\n      0x00\n        /* \"#utility.yul\":1242:1247   */\n      dup2\n        /* \"#utility.yul\":1231:1247   */\n      swap1\n      pop\n        /* \"#utility.yul\":1176:1253   */\n      swap2\n      swap1\n      pop\n      jump\t// out\n        /* \"#utility.yul\":1259:1377   */\n    tag_57:\n        /* \"#utility.yul\":1346:1370   */\n      tag_92\n        /* \"#utility.yul\":1364:1369   */\n      dup2\n        /* \"#utility.yul\":1346:1370   */\n      tag_56\n      jump\t// in\n    tag_92:\n        /* \"#utility.yul\":1341:1344   */\n      dup3\n        /* \"#utility.yul\":1334:1371   */\n      mstore\n        /* \"#utility.yul\":1259:1377   */\n      pop\n      pop\n      jump\t// out\n        /* \"#utility.yul\":1383:1605   */\n    tag_13:\n        /* \"#utility.yul\":1476:1480   */\n      0x00\n        /* \"#utility.yul\":1514:1516   */\n      0x20\n        /* \"#utility.yul\":1503:1512   */\n      dup3\n        /* \"#utility.yul\":1499:1517   */\n      add\n        /* \"#utility.yul\":1491:1517   */\n      swap1\n      pop\n        /* \"#utility.yul\":1527:1598   */\n      tag_94\n        /* \"#utility.yul\":1595:1596   */\n      0x00\n        /* \"#utility.yul\":1584:1593   */\n      dup4\n        /* \"#utility.yul\":1580:1597   */\n      add\n        /* \"#utility.yul\":1571:1577   */\n      dup5\n        /* \"#utility.yul\":1527:1598   */\n      tag_57\n      jump\t// in\n    tag_94:\n        /* \"#utility.yul\":1383:1605   */\n      swap3\n      swap2\n      pop\n      pop\n      jump\t// out\n        /* \"#utility.yul\":1611:1733   */\n    tag_58:\n        /* \"#utility.yul\":1684:1708   */\n      tag_96\n        /* \"#utility.yul\":1702:1707   */\n      dup2\n        /* \"#utility.yul\":1684:1708   */\n      tag_56\n      jump\t// in\n    tag_96:\n        /* \"#utility.yul\":1677:1682   */\n      dup2\n        /* \"#utility.yul\":1674:1709   */\n      eq\n        /* \"#utility.yul\":1664:1727   */\n      tag_97\n      jumpi\n        /* \"#utility.yul\":1723:1724   */\n      0x00\n        /* \"#utility.yul\":1720:1721   */\n      dup1\n        /* \"#utility.yul\":1713:1725   */\n      revert\n        /* \"#utility.yul\":1664:1727   */\n    tag_97:\n        /* \"#utility.yul\":1611:1733   */\n      pop\n      jump\t// out\n        /* \"#utility.yul\":1739:1878   */\n    tag_59:\n        /* \"#utility.yul\":1785:1790   */\n      0x00\n        /* \"#utility.yul\":1823:1829   */\n      dup2\n        /* \"#utility.yul\":1810:1830   */\n      calldataload\n        /* \"#utility.yul\":1801:1830   */\n      swap1\n      pop\n        /* \"#utility.yul\":1839:1872   */\n      tag_99\n        /* \"#utility.yul\":1866:1871   */\n      dup2\n        /* \"#utility.yul\":1839:1872   */\n      tag_58\n      jump\t// in\n    tag_99:\n        /* \"#utility.yul\":1739:1878   */\n      swap3\n      swap2\n      pop\n      pop\n      jump\t// out\n        /* \"#utility.yul\":1884:2213   */\n    tag_17:\n        /* \"#utility.yul\":1943:1949   */\n      0x00\n        /* \"#utility.yul\":1992:1994   */\n      0x20\n        /* \"#utility.yul\":1980:1989   */\n      dup3\n        /* \"#utility.yul\":1971:1978   */\n      dup5\n        /* \"#utility.yul\":1967:1990   */\n      sub\n        /* \"#utility.yul\":1963:1995   */\n      slt\n        /* \"#utility.yul\":1960:2079   */\n      iszero\n      tag_101\n      jumpi\n        /* \"#utility.yul\":1998:2077   */\n      tag_102\n      tag_50\n      jump\t// in\n    tag_102:\n        /* \"#utility.yul\":1960:2079   */\n    tag_101:\n        /* \"#utility.yul\":2118:2119   */\n      0x00\n        /* \"#utility.yul\":2143:2196   */\n      tag_103\n        /* \"#utility.yul\":2188:2195   */\n      dup5\n        /* \"#utility.yul\":2179:2185   */\n      dup3\n        /* \"#utility.yul\":2168:2177   */\n      dup6\n        /* \"#utility.yul\":2164:2186   */\n      add\n        /* \"#utility.yul\":2143:2196   */\n      tag_59\n      jump\t// in\n    tag_103:\n        /* \"#utility.yul\":2133:2196   */\n      swap2\n      pop\n        /* \"#utility.yul\":2089:2206   */\n      pop\n        /* \"#utility.yul\":1884:2213   */\n      swap3\n      swap2\n      pop\n      pop\n      jump\t// out\n        /* \"#utility.yul\":2219:2317   */\n    tag_60:\n        /* \"#utility.yul\":2270:2276   */\n      0x00\n        /* \"#utility.yul\":2304:2309   */\n      dup2\n        /* \"#utility.yul\":2298:2310   */\n      mload\n        /* \"#utility.yul\":2288:2310   */\n      swap1\n      pop\n        /* \"#utility.yul\":2219:2317   */\n      swap2\n      swap1\n      pop\n      jump\t// out\n        /* \"#utility.yul\":2323:2491   */\n    tag_61:\n        /* \"#utility.yul\":2406:2417   */\n      0x00\n        /* \"#utility.yul\":2440:2446   */\n      dup3\n        /* \"#utility.yul\":2435:2438   */\n      dup3\n        /* \"#utility.yul\":2428:2447   */\n      mstore\n        /* \"#utility.yul\":2480:2484   */\n      0x20\n        /* \"#utility.yul\":2475:2478   */\n      dup3\n        /* \"#utility.yul\":2471:2485   */\n      add\n        /* \"#utility.yul\":2456:2485   */\n      swap1\n      pop\n        /* \"#utility.yul\":2323:2491   */\n      swap3\n      swap2\n      pop\n      pop\n      jump\t// out\n        /* \"#utility.yul\":2497:2743   */\n    tag_62:\n        /* \"#utility.yul\":2578:2579   */\n      0x00\n        /* \"#utility.yul\":2588:2701   */\n    tag_107:\n        /* \"#utility.yul\":2602:2608   */\n      dup4\n        /* \"#utility.yul\":2599:2600   */\n      dup2\n        /* \"#utility.yul\":2596:2609   */\n      lt\n        /* \"#utility.yul\":2588:2701   */\n      iszero\n      tag_109\n      jumpi\n        /* \"#utility.yul\":2687:2688   */\n      dup1\n        /* \"#utility.yul\":2682:2685   */\n      dup3\n        /* \"#utility.yul\":2678:2689   */\n      add\n        /* \"#utility.yul\":2672:2690   */\n      mload\n        /* \"#utility.yul\":2668:2669   */\n      dup2\n        /* \"#utility.yul\":2663:2666   */\n      dup5\n        /* \"#utility.yul\":2659:2670   */\n      add\n        /* \"#utility.yul\":2652:2691   */\n      mstore\n        /* \"#utility.yul\":2624:2626   */\n      0x20\n        /* \"#utility.yul\":2621:2622   */\n      dup2\n        /* \"#utility.yul\":2617:2627   */\n      add\n        /* \"#utility.yul\":2612:2627   */\n      swap1\n      pop\n        /* \"#utility.yul\":2588:2701   */\n      jump(tag_107)\n    tag_109:\n        /* \"#utility.yul\":2735:2736   */\n      0x00\n        /* \"#utility.yul\":2726:2732   */\n      dup5\n        /* \"#utility.yul\":2721:2724   */\n      dup5\n        /* \"#utility.yul\":2717:2733   */\n      add\n        /* \"#utility.yul\":2710:2737   */\n      mstore\n        /* \"#utility.yul\":2559:2743   */\n      pop\n        /* \"#utility.yul\":2497:2743   */\n      pop\n      pop\n      pop\n      jump\t// out\n        /* \"#utility.yul\":2749:2851   */\n    tag_63:\n        /* \"#utility.yul\":2790:2796   */\n      0x00\n        /* \"#utility.yul\":2841:2843   */\n      0x1f\n        /* \"#utility.yul\":2837:2844   */\n      not\n        /* \"#utility.yul\":2832:2834   */\n      0x1f\n        /* \"#utility.yul\":2825:2830   */\n      dup4\n        /* \"#utility.yul\":2821:2835   */\n      add\n        /* \"#utility.yul\":2817:2845   */\n      and\n        /* \"#utility.yul\":2807:2845   */\n      swap1\n      pop\n        /* \"#utility.yul\":2749:2851   */\n      swap2\n      swap1\n      pop\n      jump\t// out\n        /* \"#utility.yul\":2857:3230   */\n    tag_64:\n        /* \"#utility.yul\":2943:2946   */\n      0x00\n        /* \"#utility.yul\":2971:3009   */\n      tag_112\n        /* \"#utility.yul\":3003:3008   */\n      dup3\n        /* \"#utility.yul\":2971:3009   */\n      tag_60\n      jump\t// in\n    tag_112:\n        /* \"#utility.yul\":3025:3095   */\n      tag_113\n        /* \"#utility.yul\":3088:3094   */\n      dup2\n        /* \"#utility.yul\":3083:3086   */\n      dup6\n        /* \"#utility.yul\":3025:3095   */\n      tag_61\n      jump\t// in\n    tag_113:\n        /* \"#utility.yul\":3018:3095   */\n      swap4\n      pop\n        /* \"#utility.yul\":3104:3169   */\n      tag_114\n        /* \"#utility.yul\":3162:3168   */\n      dup2\n        /* \"#utility.yul\":3157:3160   */\n      dup6\n        /* \"#utility.yul\":3150:3154   */\n      0x20\n        /* \"#utility.yul\":3143:3148   */\n      dup7\n        /* \"#utility.yul\":3139:3155   */\n      add\n        /* \"#utility.yul\":3104:3169   */\n      tag_62\n      jump\t// in\n    tag_114:\n        /* \"#utility.yul\":3194:3223   */\n      tag_115\n        /* \"#utility.yul\":3216:3222   */\n      dup2\n        /* \"#utility.yul\":3194:3223   */\n      tag_63\n      jump\t// in\n    tag_115:\n        /* \"#utility.yul\":3189:3192   */\n      dup5\n        /* \"#utility.yul\":3185:3224   */\n      add\n        /* \"#utility.yul\":3178:3224   */\n      swap2\n      pop\n        /* \"#utility.yul\":2947:3230   */\n      pop\n        /* \"#utility.yul\":2857:3230   */\n      swap3\n      swap2\n      pop\n      pop\n      jump\t// out\n        /* \"#utility.yul\":3236:3545   */\n    tag_20:\n        /* \"#utility.yul\":3347:3351   */\n      0x00\n        /* \"#utility.yul\":3385:3387   */\n      0x20\n        /* \"#utility.yul\":3374:3383   */\n      dup3\n        /* \"#utility.yul\":3370:3388   */\n      add\n        /* \"#utility.yul\":3362:3388   */\n      swap1\n      pop\n        /* \"#utility.yul\":3434:3443   */\n      dup2\n        /* \"#utility.yul\":3428:3432   */\n      dup2\n        /* \"#utility.yul\":3424:3444   */\n      sub\n        /* \"#utility.yul\":3420:3421   */\n      0x00\n        /* \"#utility.yul\":3409:3418   */\n      dup4\n        /* \"#utility.yul\":3405:3422   */\n      add\n        /* \"#utility.yul\":3398:3445   */\n      mstore\n        /* \"#utility.yul\":3462:3538   */\n      tag_117\n        /* \"#utility.yul\":3533:3537   */\n      dup2\n        /* \"#utility.yul\":3524:3530   */\n      dup5\n        /* \"#utility.yul\":3462:3538   */\n      tag_64\n      jump\t// in\n    tag_117:\n        /* \"#utility.yul\":3454:3538   */\n      swap1\n      pop\n        /* \"#utility.yul\":3236:3545   */\n      swap3\n      swap2\n      pop\n      pop\n      jump\t// out\n        /* \"#utility.yul\":3551:3720   */\n    tag_65:\n        /* \"#utility.yul\":3635:3646   */\n      0x00\n        /* \"#utility.yul\":3669:3675   */\n      dup3\n        /* \"#utility.yul\":3664:3667   */\n      dup3\n        /* \"#utility.yul\":3657:3676   */\n      mstore\n        /* \"#utility.yul\":3709:3713   */\n      0x20\n        /* \"#utility.yul\":3704:3707   */\n      dup3\n        /* \"#utility.yul\":3700:3714   */\n      add\n        /* \"#utility.yul\":3685:3714   */\n      swap1\n      pop\n        /* \"#utility.yul\":3551:3720   */\n      swap3\n      swap2\n      pop\n      pop\n      jump\t// out\n        /* \"#utility.yul\":3726:3890   */\n    tag_66:\n        /* \"#utility.yul\":3866:3882   */\n      0x4e6f20454e6f7567682045544821000000000000000000000000000000000000\n        /* \"#utility.yul\":3862:3863   */\n      0x00\n        /* \"#utility.yul\":3854:3860   */\n      dup3\n        /* \"#utility.yul\":3850:3864   */\n      add\n        /* \"#utility.yul\":3843:3883   */\n      mstore\n        /* \"#utility.yul\":3726:3890   */\n      pop\n      jump\t// out\n        /* \"#utility.yul\":3896:4262   */\n    tag_67:\n        /* \"#utility.yul\":4038:4041   */\n      0x00\n        /* \"#utility.yul\":4059:4126   */\n      tag_121\n        /* \"#utility.yul\":4123:4125   */\n      0x0e\n        /* \"#utility.yul\":4118:4121   */\n      dup4\n        /* \"#utility.yul\":4059:4126   */\n      tag_65\n      jump\t// in\n    tag_121:\n        /* \"#utility.yul\":4052:4126   */\n      swap2\n      pop\n        /* \"#utility.yul\":4135:4228   */\n      tag_122\n        /* \"#utility.yul\":4224:4227   */\n      dup3\n        /* \"#utility.yul\":4135:4228   */\n      tag_66\n      jump\t// in\n    tag_122:\n        /* \"#utility.yul\":4253:4255   */\n      0x20\n        /* \"#utility.yul\":4248:4251   */\n      dup3\n        /* \"#utility.yul\":4244:4256   */\n      add\n        /* \"#utility.yul\":4237:4256   */\n      swap1\n      pop\n        /* \"#utility.yul\":3896:4262   */\n      swap2\n      swap1\n      pop\n      jump\t// out\n        /* \"#utility.yul\":4268:4687   */\n    tag_35:\n        /* \"#utility.yul\":4434:4438   */\n      0x00\n        /* \"#utility.yul\":4472:4474   */\n      0x20\n        /* \"#utility.yul\":4461:4470   */\n      dup3\n        /* \"#utility.yul\":4457:4475   */\n      add\n        /* \"#utility.yul\":4449:4475   */\n      swap1\n      pop\n        /* \"#utility.yul\":4521:4530   */\n      dup2\n        /* \"#utility.yul\":4515:4519   */\n      dup2\n        /* \"#utility.yul\":4511:4531   */\n      sub\n        /* \"#utility.yul\":4507:4508   */\n      0x00\n        /* \"#utility.yul\":4496:4505   */\n      dup4\n        /* \"#utility.yul\":4492:4509   */\n      add\n        /* \"#utility.yul\":4485:4532   */\n      mstore\n        /* \"#utility.yul\":4549:4680   */\n      tag_124\n        /* \"#utility.yul\":4675:4679   */\n      dup2\n        /* \"#utility.yul\":4549:4680   */\n      tag_67\n      jump\t// in\n    tag_124:\n        /* \"#utility.yul\":4541:4680   */\n      swap1\n      pop\n        /* \"#utility.yul\":4268:4687   */\n      swap2\n      swap1\n      pop\n      jump\t// out\n        /* \"#utility.yul\":4693:4860   */\n    tag_68:\n        /* \"#utility.yul\":4833:4852   */\n      0x45584345454420455448204c494d495421000000000000000000000000000000\n        /* \"#utility.yul\":4829:4830   */\n      0x00\n        /* \"#utility.yul\":4821:4827   */\n      dup3\n        /* \"#utility.yul\":4817:4831   */\n      add\n        /* \"#utility.yul\":4810:4853   */\n      mstore\n        /* \"#utility.yul\":4693:4860   */\n      pop\n      jump\t// out\n        /* \"#utility.yul\":4866:5232   */\n    tag_69:\n        /* \"#utility.yul\":5008:5011   */\n      0x00\n        /* \"#utility.yul\":5029:5096   */\n      tag_127\n        /* \"#utility.yul\":5093:5095   */\n      0x11\n        /* \"#utility.yul\":5088:5091   */\n      dup4\n        /* \"#utility.yul\":5029:5096   */\n      tag_65\n      jump\t// in\n    tag_127:\n        /* \"#utility.yul\":5022:5096   */\n      swap2\n      pop\n        /* \"#utility.yul\":5105:5198   */\n      tag_128\n        /* \"#utility.yul\":5194:5197   */\n      dup3\n        /* \"#utility.yul\":5105:5198   */\n      tag_68\n      jump\t// in\n    tag_128:\n        /* \"#utility.yul\":5223:5225   */\n      0x20\n        /* \"#utility.yul\":5218:5221   */\n      dup3\n        /* \"#utility.yul\":5214:5226   */\n      add\n        /* \"#utility.yul\":5207:5226   */\n      swap1\n      pop\n        /* \"#utility.yul\":4866:5232   */\n      swap2\n      swap1\n      pop\n      jump\t// out\n        /* \"#utility.yul\":5238:5657   */\n    tag_38:\n        /* \"#utility.yul\":5404:5408   */\n      0x00\n        /* \"#utility.yul\":5442:5444   */\n      0x20\n        /* \"#utility.yul\":5431:5440   */\n      dup3\n        /* \"#utility.yul\":5427:5445   */\n      add\n        /* \"#utility.yul\":5419:5445   */\n      swap1\n      pop\n        /* \"#utility.yul\":5491:5500   */\n      dup2\n        /* \"#utility.yul\":5485:5489   */\n      dup2\n        /* \"#utility.yul\":5481:5501   */\n      sub\n        /* \"#utility.yul\":5477:5478   */\n      0x00\n        /* \"#utility.yul\":5466:5475   */\n      dup4\n        /* \"#utility.yul\":5462:5479   */\n      add\n        /* \"#utility.yul\":5455:5502   */\n      mstore\n        /* \"#utility.yul\":5519:5650   */\n      tag_130\n        /* \"#utility.yul\":5645:5649   */\n      dup2\n        /* \"#utility.yul\":5519:5650   */\n      tag_69\n      jump\t// in\n    tag_130:\n        /* \"#utility.yul\":5511:5650   */\n      swap1\n      pop\n        /* \"#utility.yul\":5238:5657   */\n      swap2\n      swap1\n      pop\n      jump\t// out\n        /* \"#utility.yul\":5663:5810   */\n    tag_70:\n        /* \"#utility.yul\":5764:5775   */\n      0x00\n        /* \"#utility.yul\":5801:5804   */\n      dup2\n        /* \"#utility.yul\":5786:5804   */\n      swap1\n      pop\n        /* \"#utility.yul\":5663:5810   */\n      swap3\n      swap2\n      pop\n      pop\n      jump\t// out\n        /* \"#utility.yul\":5816:5930   */\n    tag_71:\n      pop\n      jump\t// out\n        /* \"#utility.yul\":5936:6334   */\n    tag_72:\n        /* \"#utility.yul\":6095:6098   */\n      0x00\n        /* \"#utility.yul\":6116:6199   */\n      tag_134\n        /* \"#utility.yul\":6197:6198   */\n      0x00\n        /* \"#utility.yul\":6192:6195   */\n      dup4\n        /* \"#utility.yul\":6116:6199   */\n      tag_70\n      jump\t// in\n    tag_134:\n        /* \"#utility.yul\":6109:6199   */\n      swap2\n      pop\n        /* \"#utility.yul\":6208:6301   */\n      tag_135\n        /* \"#utility.yul\":6297:6300   */\n      dup3\n        /* \"#utility.yul\":6208:6301   */\n      tag_71\n      jump\t// in\n    tag_135:\n        /* \"#utility.yul\":6326:6327   */\n      0x00\n        /* \"#utility.yul\":6321:6324   */\n      dup3\n        /* \"#utility.yul\":6317:6328   */\n      add\n        /* \"#utility.yul\":6310:6328   */\n      swap1\n      pop\n        /* \"#utility.yul\":5936:6334   */\n      swap2\n      swap1\n      pop\n      jump\t// out\n        /* \"#utility.yul\":6340:6719   */\n    tag_40:\n        /* \"#utility.yul\":6524:6527   */\n      0x00\n        /* \"#utility.yul\":6546:6693   */\n      tag_137\n        /* \"#utility.yul\":6689:6692   */\n      dup3\n        /* \"#utility.yul\":6546:6693   */\n      tag_72\n      jump\t// in\n    tag_137:\n        /* \"#utility.yul\":6539:6693   */\n      swap2\n      pop\n        /* \"#utility.yul\":6710:6713   */\n      dup2\n        /* \"#utility.yul\":6703:6713   */\n      swap1\n      pop\n        /* \"#utility.yul\":6340:6719   */\n      swap2\n      swap1\n      pop\n      jump\t// out\n        /* \"#utility.yul\":6725:6905   */\n    tag_73:\n        /* \"#utility.yul\":6773:6850   */\n      0x4e487b7100000000000000000000000000000000000000000000000000000000\n        /* \"#utility.yul\":6770:6771   */\n      0x00\n        /* \"#utility.yul\":6763:6851   */\n      mstore\n        /* \"#utility.yul\":6870:6874   */\n      0x11\n        /* \"#utility.yul\":6867:6868   */\n      0x04\n        /* \"#utility.yul\":6860:6875   */\n      mstore\n        /* \"#utility.yul\":6894:6898   */\n      0x24\n        /* \"#utility.yul\":6891:6892   */\n      0x00\n        /* \"#utility.yul\":6884:6899   */\n      revert\n        /* \"#utility.yul\":6911:7105   */\n    tag_45:\n        /* \"#utility.yul\":6951:6955   */\n      0x00\n        /* \"#utility.yul\":6971:6991   */\n      tag_140\n        /* \"#utility.yul\":6989:6990   */\n      dup3\n        /* \"#utility.yul\":6971:6991   */\n      tag_56\n      jump\t// in\n    tag_140:\n        /* \"#utility.yul\":6966:6991   */\n      swap2\n      pop\n        /* \"#utility.yul\":7005:7025   */\n      tag_141\n        /* \"#utility.yul\":7023:7024   */\n      dup4\n        /* \"#utility.yul\":7005:7025   */\n      tag_56\n      jump\t// in\n    tag_141:\n        /* \"#utility.yul\":7000:7025   */\n      swap3\n      pop\n        /* \"#utility.yul\":7049:7050   */\n      dup3\n        /* \"#utility.yul\":7046:7047   */\n      dup3\n        /* \"#utility.yul\":7042:7051   */\n      sub\n        /* \"#utility.yul\":7034:7051   */\n      swap1\n      pop\n        /* \"#utility.yul\":7073:7074   */\n      dup2\n        /* \"#utility.yul\":7067:7071   */\n      dup2\n        /* \"#utility.yul\":7064:7075   */\n      gt\n        /* \"#utility.yul\":7061:7098   */\n      iszero\n      tag_142\n      jumpi\n        /* \"#utility.yul\":7078:7096   */\n      tag_143\n      tag_73\n      jump\t// in\n    tag_143:\n        /* \"#utility.yul\":7061:7098   */\n    tag_142:\n        /* \"#utility.yul\":6911:7105   */\n      swap3\n      swap2\n      pop\n      pop\n      jump\t// out\n        /* \"#utility.yul\":7111:7302   */\n    tag_48:\n        /* \"#utility.yul\":7151:7154   */\n      0x00\n        /* \"#utility.yul\":7170:7190   */\n      tag_145\n        /* \"#utility.yul\":7188:7189   */\n      dup3\n        /* \"#utility.yul\":7170:7190   */\n      tag_56\n      jump\t// in\n    tag_145:\n        /* \"#utility.yul\":7165:7190   */\n      swap2\n      pop\n        /* \"#utility.yul\":7204:7224   */\n      tag_146\n        /* \"#utility.yul\":7222:7223   */\n      dup4\n        /* \"#utility.yul\":7204:7224   */\n      tag_56\n      jump\t// in\n    tag_146:\n        /* \"#utility.yul\":7199:7224   */\n      swap3\n      pop\n        /* \"#utility.yul\":7247:7248   */\n      dup3\n        /* \"#utility.yul\":7244:7245   */\n      dup3\n        /* \"#utility.yul\":7240:7249   */\n      add\n        /* \"#utility.yul\":7233:7249   */\n      swap1\n      pop\n        /* \"#utility.yul\":7268:7271   */\n      dup1\n        /* \"#utility.yul\":7265:7266   */\n      dup3\n        /* \"#utility.yul\":7262:7272   */\n      gt\n        /* \"#utility.yul\":7259:7295   */\n      iszero\n      tag_147\n      jumpi\n        /* \"#utility.yul\":7275:7293   */\n      tag_148\n      tag_73\n      jump\t// in\n    tag_148:\n        /* \"#utility.yul\":7259:7295   */\n    tag_147:\n        /* \"#utility.yul\":7111:7302   */\n      swap3\n      swap2\n      pop\n      pop\n      jump\t// out\n\n    auxdata: 0xa2646970667358221220036106935336ddf2ec47137f34b4b81fe954866d5af5f774ab4fbd9a4222596a64736f6c63430008110033\n}\n",
				"bytecode": {
					"linkReferences": {},
					"object": "6080604052670de0b6b3a764000060005534801561001c57600080fd5b5061076f8061002c6000396000f3fe60806040526004361061004a5760003560e01c80631031ec311461004f578063155dd5ee1461008c57806327e235e3146100c95780637ddfe78d14610106578063e2c41dbc14610131575b600080fd5b34801561005b57600080fd5b5061007660048036038101906100719190610407565b61013b565b604051610083919061044d565b60405180910390f35b34801561009857600080fd5b506100b360048036038101906100ae9190610494565b610153565b6040516100c09190610551565b60405180910390f35b3480156100d557600080fd5b506100f060048036038101906100eb9190610407565b61032e565b6040516100fd919061044d565b60405180910390f35b34801561011257600080fd5b5061011b610346565b604051610128919061044d565b60405180910390f35b61013961034c565b005b60016020528060005260406000206000915090505481565b606081600260003373ffffffffffffffffffffffffffffffffffffffff1673ffffffffffffffffffffffffffffffffffffffff1681526020019081526020016000205410156101d7576040517f08c379a00000000000000000000000000000000000000000000000000000000081526004016101ce906105d0565b60405180910390fd5b60005482111561021c576040517f08c379a00000000000000000000000000000000000000000000000000000000081526004016102139061063c565b60405180910390fd5b6000803373ffffffffffffffffffffffffffffffffffffffff16846040516102439061068d565b60006040518083038185875af1925050503d8060008114610280576040519150601f19603f3d011682016040523d82523d6000602084013e610285565b606091505b509150915083600260003373ffffffffffffffffffffffffffffffffffffffff1673ffffffffffffffffffffffffffffffffffffffff16815260200190815260200160002060008282546102d991906106d1565b9250508190555042600160003373ffffffffffffffffffffffffffffffffffffffff1673ffffffffffffffffffffffffffffffffffffffff168152602001908152602001600020819055508092505050919050565b60026020528060005260406000206000915090505481565b60005481565b34600260003373ffffffffffffffffffffffffffffffffffffffff1673ffffffffffffffffffffffffffffffffffffffff168152602001908152602001600020600082825461039b9190610705565b92505081905550565b600080fd5b600073ffffffffffffffffffffffffffffffffffffffff82169050919050565b60006103d4826103a9565b9050919050565b6103e4816103c9565b81146103ef57600080fd5b50565b600081359050610401816103db565b92915050565b60006020828403121561041d5761041c6103a4565b5b600061042b848285016103f2565b91505092915050565b6000819050919050565b61044781610434565b82525050565b6000602082019050610462600083018461043e565b92915050565b61047181610434565b811461047c57600080fd5b50565b60008135905061048e81610468565b92915050565b6000602082840312156104aa576104a96103a4565b5b60006104b88482850161047f565b91505092915050565b600081519050919050565b600082825260208201905092915050565b60005b838110156104fb5780820151818401526020810190506104e0565b60008484015250505050565b6000601f19601f8301169050919050565b6000610523826104c1565b61052d81856104cc565b935061053d8185602086016104dd565b61054681610507565b840191505092915050565b6000602082019050818103600083015261056b8184610518565b905092915050565b600082825260208201905092915050565b7f4e6f20454e6f7567682045544821000000000000000000000000000000000000600082015250565b60006105ba600e83610573565b91506105c582610584565b602082019050919050565b600060208201905081810360008301526105e9816105ad565b9050919050565b7f45584345454420455448204c494d495421000000000000000000000000000000600082015250565b6000610626601183610573565b9150610631826105f0565b602082019050919050565b6000602082019050818103600083015261065581610619565b9050919050565b600081905092915050565b50565b600061067760008361065c565b915061068282610667565b600082019050919050565b60006106988261066a565b9150819050919050565b7f4e487b7100000000000000000000000000000000000000000000000000000000600052601160045260246000fd5b60006106dc82610434565b91506106e783610434565b92508282039050818111156106ff576106fe6106a2565b5b92915050565b600061071082610434565b915061071b83610434565b9250828201905080821115610733576107326106a2565b5b9291505056fea2646970667358221220036106935336ddf2ec47137f34b4b81fe954866d5af5f774ab4fbd9a4222596a64736f6c63430008110033",
					"opcodes": "PUSH1 0x80 PUSH1 0x40 MSTORE PUSH8 0xDE0B6B3A7640000 PUSH1 0x0 SSTORE CALLVALUE DUP1 ISZERO PUSH2 0x1C JUMPI PUSH1 0x0 DUP1 REVERT JUMPDEST POP PUSH2 0x76F DUP1 PUSH2 0x2C PUSH1 0x0 CODECOPY PUSH1 0x0 RETURN INVALID PUSH1 0x80 PUSH1 0x40 MSTORE PUSH1 0x4 CALLDATASIZE LT PUSH2 0x4A JUMPI PUSH1 0x0 CALLDATALOAD PUSH1 0xE0 SHR DUP1 PUSH4 0x1031EC31 EQ PUSH2 0x4F JUMPI DUP1 PUSH4 0x155DD5EE EQ PUSH2 0x8C JUMPI DUP1 PUSH4 0x27E235E3 EQ PUSH2 0xC9 JUMPI DUP1 PUSH4 0x7DDFE78D EQ PUSH2 0x106 JUMPI DUP1 PUSH4 0xE2C41DBC EQ PUSH2 0x131 JUMPI JUMPDEST PUSH1 0x0 DUP1 REVERT JUMPDEST CALLVALUE DUP1 ISZERO PUSH2 0x5B JUMPI PUSH1 0x0 DUP1 REVERT JUMPDEST POP PUSH2 0x76 PUSH1 0x4 DUP1 CALLDATASIZE SUB DUP2 ADD SWAP1 PUSH2 0x71 SWAP2 SWAP1 PUSH2 0x407 JUMP JUMPDEST PUSH2 0x13B JUMP JUMPDEST PUSH1 0x40 MLOAD PUSH2 0x83 SWAP2 SWAP1 PUSH2 0x44D JUMP JUMPDEST PUSH1 0x40 MLOAD DUP1 SWAP2 SUB SWAP1 RETURN JUMPDEST CALLVALUE DUP1 ISZERO PUSH2 0x98 JUMPI PUSH1 0x0 DUP1 REVERT JUMPDEST POP PUSH2 0xB3 PUSH1 0x4 DUP1 CALLDATASIZE SUB DUP2 ADD SWAP1 PUSH2 0xAE SWAP2 SWAP1 PUSH2 0x494 JUMP JUMPDEST PUSH2 0x153 JUMP JUMPDEST PUSH1 0x40 MLOAD PUSH2 0xC0 SWAP2 SWAP1 PUSH2 0x551 JUMP JUMPDEST PUSH1 0x40 MLOAD DUP1 SWAP2 SUB SWAP1 RETURN JUMPDEST CALLVALUE DUP1 ISZERO PUSH2 0xD5 JUMPI PUSH1 0x0 DUP1 REVERT JUMPDEST POP PUSH2 0xF0 PUSH1 0x4 DUP1 CALLDATASIZE SUB DUP2 ADD SWAP1 PUSH2 0xEB SWAP2 SWAP1 PUSH2 0x407 JUMP JUMPDEST PUSH2 0x32E JUMP JUMPDEST PUSH1 0x40 MLOAD PUSH2 0xFD SWAP2 SWAP1 PUSH2 0x44D JUMP JUMPDEST PUSH1 0x40 MLOAD DUP1 SWAP2 SUB SWAP1 RETURN JUMPDEST CALLVALUE DUP1 ISZERO PUSH2 0x112 JUMPI PUSH1 0x0 DUP1 REVERT JUMPDEST POP PUSH2 0x11B PUSH2 0x346 JUMP JUMPDEST PUSH1 0x40 MLOAD PUSH2 0x128 SWAP2 SWAP1 PUSH2 0x44D JUMP JUMPDEST PUSH1 0x40 MLOAD DUP1 SWAP2 SUB SWAP1 RETURN JUMPDEST PUSH2 0x139 PUSH2 0x34C JUMP JUMPDEST STOP JUMPDEST PUSH1 0x1 PUSH1 0x20 MSTORE DUP1 PUSH1 0x0 MSTORE PUSH1 0x40 PUSH1 0x0 KECCAK256 PUSH1 0x0 SWAP2 POP SWAP1 POP SLOAD DUP2 JUMP JUMPDEST PUSH1 0x60 DUP2 PUSH1 0x2 PUSH1 0x0 CALLER PUSH20 0xFFFFFFFFFFFFFFFFFFFFFFFFFFFFFFFFFFFFFFFF AND PUSH20 0xFFFFFFFFFFFFFFFFFFFFFFFFFFFFFFFFFFFFFFFF AND DUP2 MSTORE PUSH1 0x20 ADD SWAP1 DUP2 MSTORE PUSH1 0x20 ADD PUSH1 0x0 KECCAK256 SLOAD LT ISZERO PUSH2 0x1D7 JUMPI PUSH1 0x40 MLOAD PUSH32 0x8C379A000000000000000000000000000000000000000000000000000000000 DUP2 MSTORE PUSH1 0x4 ADD PUSH2 0x1CE SWAP1 PUSH2 0x5D0 JUMP JUMPDEST PUSH1 0x40 MLOAD DUP1 SWAP2 SUB SWAP1 REVERT JUMPDEST PUSH1 0x0 SLOAD DUP3 GT ISZERO PUSH2 0x21C JUMPI PUSH1 0x40 MLOAD PUSH32 0x8C379A000000000000000000000000000000000000000000000000000000000 DUP2 MSTORE PUSH1 0x4 ADD PUSH2 0x213 SWAP1 PUSH2 0x63C JUMP JUMPDEST PUSH1 0x40 MLOAD DUP1 SWAP2 SUB SWAP1 REVERT JUMPDEST PUSH1 0x0 DUP1 CALLER PUSH20 0xFFFFFFFFFFFFFFFFFFFFFFFFFFFFFFFFFFFFFFFF AND DUP5 PUSH1 0x40 MLOAD PUSH2 0x243 SWAP1 PUSH2 0x68D JUMP JUMPDEST PUSH1 0x0 PUSH1 0x40 MLOAD DUP1 DUP4 SUB DUP2 DUP6 DUP8 GAS CALL SWAP3 POP POP POP RETURNDATASIZE DUP1 PUSH1 0x0 DUP2 EQ PUSH2 0x280 JUMPI PUSH1 0x40 MLOAD SWAP2 POP PUSH1 0x1F NOT PUSH1 0x3F RETURNDATASIZE ADD AND DUP3 ADD PUSH1 0x40 MSTORE RETURNDATASIZE DUP3 MSTORE RETURNDATASIZE PUSH1 0x0 PUSH1 0x20 DUP5 ADD RETURNDATACOPY PUSH2 0x285 JUMP JUMPDEST PUSH1 0x60 SWAP2 POP JUMPDEST POP SWAP2 POP SWAP2 POP DUP4 PUSH1 0x2 PUSH1 0x0 CALLER PUSH20 0xFFFFFFFFFFFFFFFFFFFFFFFFFFFFFFFFFFFFFFFF AND PUSH20 0xFFFFFFFFFFFFFFFFFFFFFFFFFFFFFFFFFFFFFFFF AND DUP2 MSTORE PUSH1 0x20 ADD SWAP1 DUP2 MSTORE PUSH1 0x20 ADD PUSH1 0x0 KECCAK256 PUSH1 0x0 DUP3 DUP3 SLOAD PUSH2 0x2D9 SWAP2 SWAP1 PUSH2 0x6D1 JUMP JUMPDEST SWAP3 POP POP DUP2 SWAP1 SSTORE POP TIMESTAMP PUSH1 0x1 PUSH1 0x0 CALLER PUSH20 0xFFFFFFFFFFFFFFFFFFFFFFFFFFFFFFFFFFFFFFFF AND PUSH20 0xFFFFFFFFFFFFFFFFFFFFFFFFFFFFFFFFFFFFFFFF AND DUP2 MSTORE PUSH1 0x20 ADD SWAP1 DUP2 MSTORE PUSH1 0x20 ADD PUSH1 0x0 KECCAK256 DUP2 SWAP1 SSTORE POP DUP1 SWAP3 POP POP POP SWAP2 SWAP1 POP JUMP JUMPDEST PUSH1 0x2 PUSH1 0x20 MSTORE DUP1 PUSH1 0x0 MSTORE PUSH1 0x40 PUSH1 0x0 KECCAK256 PUSH1 0x0 SWAP2 POP SWAP1 POP SLOAD DUP2 JUMP JUMPDEST PUSH1 0x0 SLOAD DUP2 JUMP JUMPDEST CALLVALUE PUSH1 0x2 PUSH1 0x0 CALLER PUSH20 0xFFFFFFFFFFFFFFFFFFFFFFFFFFFFFFFFFFFFFFFF AND PUSH20 0xFFFFFFFFFFFFFFFFFFFFFFFFFFFFFFFFFFFFFFFF AND DUP2 MSTORE PUSH1 0x20 ADD SWAP1 DUP2 MSTORE PUSH1 0x20 ADD PUSH1 0x0 KECCAK256 PUSH1 0x0 DUP3 DUP3 SLOAD PUSH2 0x39B SWAP2 SWAP1 PUSH2 0x705 JUMP JUMPDEST SWAP3 POP POP DUP2 SWAP1 SSTORE POP JUMP JUMPDEST PUSH1 0x0 DUP1 REVERT JUMPDEST PUSH1 0x0 PUSH20 0xFFFFFFFFFFFFFFFFFFFFFFFFFFFFFFFFFFFFFFFF DUP3 AND SWAP1 POP SWAP2 SWAP1 POP JUMP JUMPDEST PUSH1 0x0 PUSH2 0x3D4 DUP3 PUSH2 0x3A9 JUMP JUMPDEST SWAP1 POP SWAP2 SWAP1 POP JUMP JUMPDEST PUSH2 0x3E4 DUP2 PUSH2 0x3C9 JUMP JUMPDEST DUP2 EQ PUSH2 0x3EF JUMPI PUSH1 0x0 DUP1 REVERT JUMPDEST POP JUMP JUMPDEST PUSH1 0x0 DUP2 CALLDATALOAD SWAP1 POP PUSH2 0x401 DUP2 PUSH2 0x3DB JUMP JUMPDEST SWAP3 SWAP2 POP POP JUMP JUMPDEST PUSH1 0x0 PUSH1 0x20 DUP3 DUP5 SUB SLT ISZERO PUSH2 0x41D JUMPI PUSH2 0x41C PUSH2 0x3A4 JUMP JUMPDEST JUMPDEST PUSH1 0x0 PUSH2 0x42B DUP5 DUP3 DUP6 ADD PUSH2 0x3F2 JUMP JUMPDEST SWAP2 POP POP SWAP3 SWAP2 POP POP JUMP JUMPDEST PUSH1 0x0 DUP2 SWAP1 POP SWAP2 SWAP1 POP JUMP JUMPDEST PUSH2 0x447 DUP2 PUSH2 0x434 JUMP JUMPDEST DUP3 MSTORE POP POP JUMP JUMPDEST PUSH1 0x0 PUSH1 0x20 DUP3 ADD SWAP1 POP PUSH2 0x462 PUSH1 0x0 DUP4 ADD DUP5 PUSH2 0x43E JUMP JUMPDEST SWAP3 SWAP2 POP POP JUMP JUMPDEST PUSH2 0x471 DUP2 PUSH2 0x434 JUMP JUMPDEST DUP2 EQ PUSH2 0x47C JUMPI PUSH1 0x0 DUP1 REVERT JUMPDEST POP JUMP JUMPDEST PUSH1 0x0 DUP2 CALLDATALOAD SWAP1 POP PUSH2 0x48E DUP2 PUSH2 0x468 JUMP JUMPDEST SWAP3 SWAP2 POP POP JUMP JUMPDEST PUSH1 0x0 PUSH1 0x20 DUP3 DUP5 SUB SLT ISZERO PUSH2 0x4AA JUMPI PUSH2 0x4A9 PUSH2 0x3A4 JUMP JUMPDEST JUMPDEST PUSH1 0x0 PUSH2 0x4B8 DUP5 DUP3 DUP6 ADD PUSH2 0x47F JUMP JUMPDEST SWAP2 POP POP SWAP3 SWAP2 POP POP JUMP JUMPDEST PUSH1 0x0 DUP2 MLOAD SWAP1 POP SWAP2 SWAP1 POP JUMP JUMPDEST PUSH1 0x0 DUP3 DUP3 MSTORE PUSH1 0x20 DUP3 ADD SWAP1 POP SWAP3 SWAP2 POP POP JUMP JUMPDEST PUSH1 0x0 JUMPDEST DUP4 DUP2 LT ISZERO PUSH2 0x4FB JUMPI DUP1 DUP3 ADD MLOAD DUP2 DUP5 ADD MSTORE PUSH1 0x20 DUP2 ADD SWAP1 POP PUSH2 0x4E0 JUMP JUMPDEST PUSH1 0x0 DUP5 DUP5 ADD MSTORE POP POP POP POP JUMP JUMPDEST PUSH1 0x0 PUSH1 0x1F NOT PUSH1 0x1F DUP4 ADD AND SWAP1 POP SWAP2 SWAP1 POP JUMP JUMPDEST PUSH1 0x0 PUSH2 0x523 DUP3 PUSH2 0x4C1 JUMP JUMPDEST PUSH2 0x52D DUP2 DUP6 PUSH2 0x4CC JUMP JUMPDEST SWAP4 POP PUSH2 0x53D DUP2 DUP6 PUSH1 0x20 DUP7 ADD PUSH2 0x4DD JUMP JUMPDEST PUSH2 0x546 DUP2 PUSH2 0x507 JUMP JUMPDEST DUP5 ADD SWAP2 POP POP SWAP3 SWAP2 POP POP JUMP JUMPDEST PUSH1 0x0 PUSH1 0x20 DUP3 ADD SWAP1 POP DUP2 DUP2 SUB PUSH1 0x0 DUP4 ADD MSTORE PUSH2 0x56B DUP2 DUP5 PUSH2 0x518 JUMP JUMPDEST SWAP1 POP SWAP3 SWAP2 POP POP JUMP JUMPDEST PUSH1 0x0 DUP3 DUP3 MSTORE PUSH1 0x20 DUP3 ADD SWAP1 POP SWAP3 SWAP2 POP POP JUMP JUMPDEST PUSH32 0x4E6F20454E6F7567682045544821000000000000000000000000000000000000 PUSH1 0x0 DUP3 ADD MSTORE POP JUMP JUMPDEST PUSH1 0x0 PUSH2 0x5BA PUSH1 0xE DUP4 PUSH2 0x573 JUMP JUMPDEST SWAP2 POP PUSH2 0x5C5 DUP3 PUSH2 0x584 JUMP JUMPDEST PUSH1 0x20 DUP3 ADD SWAP1 POP SWAP2 SWAP1 POP JUMP JUMPDEST PUSH1 0x0 PUSH1 0x20 DUP3 ADD SWAP1 POP DUP2 DUP2 SUB PUSH1 0x0 DUP4 ADD MSTORE PUSH2 0x5E9 DUP2 PUSH2 0x5AD JUMP JUMPDEST SWAP1 POP SWAP2 SWAP1 POP JUMP JUMPDEST PUSH32 0x45584345454420455448204C494D495421000000000000000000000000000000 PUSH1 0x0 DUP3 ADD MSTORE POP JUMP JUMPDEST PUSH1 0x0 PUSH2 0x626 PUSH1 0x11 DUP4 PUSH2 0x573 JUMP JUMPDEST SWAP2 POP PUSH2 0x631 DUP3 PUSH2 0x5F0 JUMP JUMPDEST PUSH1 0x20 DUP3 ADD SWAP1 POP SWAP2 SWAP1 POP JUMP JUMPDEST PUSH1 0x0 PUSH1 0x20 DUP3 ADD SWAP1 POP DUP2 DUP2 SUB PUSH1 0x0 DUP4 ADD MSTORE PUSH2 0x655 DUP2 PUSH2 0x619 JUMP JUMPDEST SWAP1 POP SWAP2 SWAP1 POP JUMP JUMPDEST PUSH1 0x0 DUP2 SWAP1 POP SWAP3 SWAP2 POP POP JUMP JUMPDEST POP JUMP JUMPDEST PUSH1 0x0 PUSH2 0x677 PUSH1 0x0 DUP4 PUSH2 0x65C JUMP JUMPDEST SWAP2 POP PUSH2 0x682 DUP3 PUSH2 0x667 JUMP JUMPDEST PUSH1 0x0 DUP3 ADD SWAP1 POP SWAP2 SWAP1 POP JUMP JUMPDEST PUSH1 0x0 PUSH2 0x698 DUP3 PUSH2 0x66A JUMP JUMPDEST SWAP2 POP DUP2 SWAP1 POP SWAP2 SWAP1 POP JUMP JUMPDEST PUSH32 0x4E487B7100000000000000000000000000000000000000000000000000000000 PUSH1 0x0 MSTORE PUSH1 0x11 PUSH1 0x4 MSTORE PUSH1 0x24 PUSH1 0x0 REVERT JUMPDEST PUSH1 0x0 PUSH2 0x6DC DUP3 PUSH2 0x434 JUMP JUMPDEST SWAP2 POP PUSH2 0x6E7 DUP4 PUSH2 0x434 JUMP JUMPDEST SWAP3 POP DUP3 DUP3 SUB SWAP1 POP DUP2 DUP2 GT ISZERO PUSH2 0x6FF JUMPI PUSH2 0x6FE PUSH2 0x6A2 JUMP JUMPDEST JUMPDEST SWAP3 SWAP2 POP POP JUMP JUMPDEST PUSH1 0x0 PUSH2 0x710 DUP3 PUSH2 0x434 JUMP JUMPDEST SWAP2 POP PUSH2 0x71B DUP4 PUSH2 0x434 JUMP JUMPDEST SWAP3 POP DUP3 DUP3 ADD SWAP1 POP DUP1 DUP3 GT ISZERO PUSH2 0x733 JUMPI PUSH2 0x732 PUSH2 0x6A2 JUMP JUMPDEST JUMPDEST SWAP3 SWAP2 POP POP JUMP INVALID LOG2 PUSH5 0x6970667358 0x22 SLT KECCAK256 SUB PUSH2 0x693 MSTORE8 CALLDATASIZE 0xDD CALLCODE 0xEC SELFBALANCE SGT PUSH32 0x34B4B81FE954866D5AF5F774AB4FBD9A4222596A64736F6C6343000811003300 "
				},
				"gasEstimates": {
					"creation": {
						"codeDepositCost": "380600",
						"executionCost": "22524",
						"totalCost": "403124"
					},
					"external": {
						"balances(address)": "2836",
						"depositFunds()": "infinite",
						"lastWithdrawTime(address)": "2792",
						"withdrawFunds(uint256)": "infinite",
						"withdrawalLimit()": "2473"
					}
				},
				"methodIdentifiers": {
					"balances(address)": "27e235e3",
					"depositFunds()": "e2c41dbc",
					"lastWithdrawTime(address)": "1031ec31",
					"withdrawFunds(uint256)": "155dd5ee",
					"withdrawalLimit()": "7ddfe78d"
				}
			},
			"storageLayout": {
				"storage": [
					{
						"astId": 4,
						"contract": "brownie/vuln_test/contracts/EtherStore.sol:EtherStore",
						"label": "withdrawalLimit",
						"offset": 0,
						"slot": "0",
						"type": "t_uint256"
					},
					{
						"astId": 8,
						"contract": "brownie/vuln_test/contracts/EtherStore.sol:EtherStore",
						"label": "lastWithdrawTime",
						"offset": 0,
						"slot": "1",
						"type": "t_mapping(t_address,t_uint256)"
					},
					{
						"astId": 12,
						"contract": "brownie/vuln_test/contracts/EtherStore.sol:EtherStore",
						"label": "balances",
						"offset": 0,
						"slot": "2",
						"type": "t_mapping(t_address,t_uint256)"
					}
				],
				"types": {
					"t_address": {
						"encoding": "inplace",
						"label": "address",
						"numberOfBytes": "20"
					},
					"t_mapping(t_address,t_uint256)": {
						"encoding": "mapping",
						"key": "t_address",
						"label": "mapping(address => uint256)",
						"numberOfBytes": "32",
						"value": "t_uint256"
					},
					"t_uint256": {
						"encoding": "inplace",
						"label": "uint256",
						"numberOfBytes": "32"
					}
				}
			},
			"userdoc": {
				"kind": "user",
				"methods": {},
				"version": 1
			}
		}
	}
}